:100000000EC015C014C013C012C011C010C00FC064
:100010000EC00DC00CC00BC00AC009C008C011241E
:100020001FBECFE5D1E0DEBFCDBF1DD0B6C0E8CF4B
:1000300097B18F70907F892B87B9369A3699FECF0A
:1000400024B135B1932F80E030E0282B392BC90142
:100050000895C298BA988DE087B986B1836C86B945
:100060003699FECF0895FF920F931F93CF93DF939E
:10007000BC9AEFDF83E0DCDF7894C82FD92F10E043
:100080000AE583E0D5DFFC019C012C1B3D0B37FF0B
:1000900003C0309521953F4F2330310590F362C066
:1000A000C49A2134310538F087E893E10197F1F7DC
:1000B00000C0000003C02132310538F087EE93E024
:1000C0000197F1F700C0000003C02131310538F07D
:1000D00083EC99E00197F1F700C0000003C02930DC
:1000E000310538F08DEE92E00197F1F700C0000085
:1000F00003C02530310538F083EF91E00197F1F727
:1001000000C0000003C02230310530F089EF90E0DC
:100110000197F1F700C00000C4988F2D602F31D0F7
:10012000C82FD0E060E070E008C089EF90E0019750
:10013000F1F700C000006F5F7F4FC617D707ACF71D
:10014000F20E4F5F5F4F4A175B0708F4A9CF8A2F63
:10015000622F0ED0180F369527952115310511F411
:10016000EF018FCFF12E40E050E0D9011596EBCF93
:10017000002480FD060E660F11F08695D1F7802DC4
:100180000895991B79E004C0991F961708F0961BF3
:0E019000881F7A95C9F780950895F894FFCFDF
:00000001FF
